{
  "_format": "hh-sol-artifact-1",
  "contractName": "UniswapV2Router02WithCompetition",
  "sourceName": "contracts/test.sol",
  "abi": [
    {
      "inputs": [
        {
          "internalType": "address",
          "name": "_factory",
          "type": "address"
        },
        {
          "internalType": "address",
          "name": "_WETH",
          "type": "address"
        },
        {
          "internalType": "address",
          "name": "_pepperToken",
          "type": "address"
        },
        {
          "internalType": "address",
          "name": "_wchzToken",
          "type": "address"
        },
        {
          "internalType": "uint256",
          "name": "_competitionDuration",
          "type": "uint256"
        },
        {
          "internalType": "uint256",
          "name": "_dailyRewardPool",
          "type": "uint256"
        }
      ],
      "stateMutability": "nonpayable",
      "type": "constructor"
    },
    {
      "anonymous": false,
      "inputs": [
        {
          "indexed": false,
          "internalType": "uint256",
          "name": "newDuration",
          "type": "uint256"
        },
        {
          "indexed": false,
          "internalType": "uint256",
          "name": "newDailyRewardPool",
          "type": "uint256"
        }
      ],
      "name": "CompetitionConfigUpdated",
      "type": "event"
    },
    {
      "anonymous": false,
      "inputs": [
        {
          "indexed": false,
          "internalType": "uint256",
          "name": "oldDayIndex",
          "type": "uint256"
        },
        {
          "indexed": false,
          "internalType": "uint256",
          "name": "newDayIndex",
          "type": "uint256"
        }
      ],
      "name": "DayRolledOver",
      "type": "event"
    },
    {
      "anonymous": false,
      "inputs": [
        {
          "indexed": true,
          "internalType": "address",
          "name": "previousOwner",
          "type": "address"
        },
        {
          "indexed": true,
          "internalType": "address",
          "name": "newOwner",
          "type": "address"
        }
      ],
      "name": "OwnershipTransferred",
      "type": "event"
    },
    {
      "anonymous": false,
      "inputs": [
        {
          "indexed": true,
          "internalType": "uint256",
          "name": "dayIndex",
          "type": "uint256"
        },
        {
          "indexed": true,
          "internalType": "address",
          "name": "user",
          "type": "address"
        },
        {
          "indexed": false,
          "internalType": "uint256",
          "name": "reward",
          "type": "uint256"
        }
      ],
      "name": "RewardClaimed",
      "type": "event"
    },
    {
      "anonymous": false,
      "inputs": [
        {
          "indexed": true,
          "internalType": "address",
          "name": "user",
          "type": "address"
        },
        {
          "indexed": false,
          "internalType": "uint256",
          "name": "totalAmount",
          "type": "uint256"
        }
      ],
      "name": "RewardsClaimed",
      "type": "event"
    },
    {
      "anonymous": false,
      "inputs": [
        {
          "indexed": true,
          "internalType": "uint256",
          "name": "dayIndex",
          "type": "uint256"
        },
        {
          "indexed": true,
          "internalType": "address",
          "name": "user",
          "type": "address"
        },
        {
          "indexed": false,
          "internalType": "uint256",
          "name": "amount",
          "type": "uint256"
        }
      ],
      "name": "TradeRecorded",
      "type": "event"
    },
    {
      "inputs": [
        {
          "internalType": "uint256",
          "name": "amount",
          "type": "uint256"
        }
      ],
      "name": "EmergencyWithdrawPepper",
      "outputs": [],
      "stateMutability": "nonpayable",
      "type": "function"
    },
    {
      "inputs": [],
      "name": "WETH",
      "outputs": [
        {
          "internalType": "address",
          "name": "",
          "type": "address"
        }
      ],
      "stateMutability": "view",
      "type": "function"
    },
    {
      "inputs": [
        {
          "internalType": "address",
          "name": "tokenA",
          "type": "address"
        },
        {
          "internalType": "address",
          "name": "tokenB",
          "type": "address"
        },
        {
          "internalType": "uint256",
          "name": "amountADesired",
          "type": "uint256"
        },
        {
          "internalType": "uint256",
          "name": "amountBDesired",
          "type": "uint256"
        },
        {
          "internalType": "uint256",
          "name": "amountAMin",
          "type": "uint256"
        },
        {
          "internalType": "uint256",
          "name": "amountBMin",
          "type": "uint256"
        },
        {
          "internalType": "address",
          "name": "to",
          "type": "address"
        },
        {
          "internalType": "uint256",
          "name": "deadline",
          "type": "uint256"
        }
      ],
      "name": "addLiquidity",
      "outputs": [
        {
          "internalType": "uint256",
          "name": "amountA",
          "type": "uint256"
        },
        {
          "internalType": "uint256",
          "name": "amountB",
          "type": "uint256"
        },
        {
          "internalType": "uint256",
          "name": "liquidity",
          "type": "uint256"
        }
      ],
      "stateMutability": "nonpayable",
      "type": "function"
    },
    {
      "inputs": [
        {
          "internalType": "address",
          "name": "token",
          "type": "address"
        },
        {
          "internalType": "uint256",
          "name": "amountTokenDesired",
          "type": "uint256"
        },
        {
          "internalType": "uint256",
          "name": "amountTokenMin",
          "type": "uint256"
        },
        {
          "internalType": "uint256",
          "name": "amountETHMin",
          "type": "uint256"
        },
        {
          "internalType": "address",
          "name": "to",
          "type": "address"
        },
        {
          "internalType": "uint256",
          "name": "deadline",
          "type": "uint256"
        }
      ],
      "name": "addLiquidityETH",
      "outputs": [
        {
          "internalType": "uint256",
          "name": "amountToken",
          "type": "uint256"
        },
        {
          "internalType": "uint256",
          "name": "amountETH",
          "type": "uint256"
        },
        {
          "internalType": "uint256",
          "name": "liquidity",
          "type": "uint256"
        }
      ],
      "stateMutability": "payable",
      "type": "function"
    },
    {
      "inputs": [],
      "name": "claimAllRewards",
      "outputs": [],
      "stateMutability": "nonpayable",
      "type": "function"
    },
    {
      "inputs": [],
      "name": "competitionDuration",
      "outputs": [
        {
          "internalType": "uint256",
          "name": "",
          "type": "uint256"
        }
      ],
      "stateMutability": "view",
      "type": "function"
    },
    {
      "inputs": [],
      "name": "competitionStarted",
      "outputs": [
        {
          "internalType": "bool",
          "name": "",
          "type": "bool"
        }
      ],
      "stateMutability": "view",
      "type": "function"
    },
    {
      "inputs": [],
      "name": "currentDayIndex",
      "outputs": [
        {
          "internalType": "uint256",
          "name": "",
          "type": "uint256"
        }
      ],
      "stateMutability": "view",
      "type": "function"
    },
    {
      "inputs": [],
      "name": "currentDayStart",
      "outputs": [
        {
          "internalType": "uint256",
          "name": "",
          "type": "uint256"
        }
      ],
      "stateMutability": "view",
      "type": "function"
    },
    {
      "inputs": [],
      "name": "dailyRewardPool",
      "outputs": [
        {
          "internalType": "uint256",
          "name": "",
          "type": "uint256"
        }
      ],
      "stateMutability": "view",
      "type": "function"
    },
    {
      "inputs": [
        {
          "internalType": "uint256",
          "name": "dayIndex",
          "type": "uint256"
        },
        {
          "internalType": "address",
          "name": "user",
          "type": "address"
        }
      ],
      "name": "estimateReward",
      "outputs": [
        {
          "internalType": "uint256",
          "name": "",
          "type": "uint256"
        }
      ],
      "stateMutability": "view",
      "type": "function"
    },
    {
      "inputs": [],
      "name": "factory",
      "outputs": [
        {
          "internalType": "address",
          "name": "",
          "type": "address"
        }
      ],
      "stateMutability": "view",
      "type": "function"
    },
    {
      "inputs": [
        {
          "internalType": "uint256",
          "name": "amount",
          "type": "uint256"
        }
      ],
      "name": "fundRewardPool",
      "outputs": [],
      "stateMutability": "nonpayable",
      "type": "function"
    },
    {
      "inputs": [
        {
          "internalType": "uint256",
          "name": "amountOut",
          "type": "uint256"
        },
        {
          "internalType": "uint256",
          "name": "reserveIn",
          "type": "uint256"
        },
        {
          "internalType": "uint256",
          "name": "reserveOut",
          "type": "uint256"
        }
      ],
      "name": "getAmountIn",
      "outputs": [
        {
          "internalType": "uint256",
          "name": "amountIn",
          "type": "uint256"
        }
      ],
      "stateMutability": "pure",
      "type": "function"
    },
    {
      "inputs": [
        {
          "internalType": "uint256",
          "name": "amountIn",
          "type": "uint256"
        },
        {
          "internalType": "uint256",
          "name": "reserveIn",
          "type": "uint256"
        },
        {
          "internalType": "uint256",
          "name": "reserveOut",
          "type": "uint256"
        }
      ],
      "name": "getAmountOut",
      "outputs": [
        {
          "internalType": "uint256",
          "name": "amountOut",
          "type": "uint256"
        }
      ],
      "stateMutability": "pure",
      "type": "function"
    },
    {
      "inputs": [
        {
          "internalType": "uint256",
          "name": "amountOut",
          "type": "uint256"
        },
        {
          "internalType": "address[]",
          "name": "path",
          "type": "address[]"
        }
      ],
      "name": "getAmountsIn",
      "outputs": [
        {
          "internalType": "uint256[]",
          "name": "amounts",
          "type": "uint256[]"
        }
      ],
      "stateMutability": "view",
      "type": "function"
    },
    {
      "inputs": [
        {
          "internalType": "uint256",
          "name": "amountIn",
          "type": "uint256"
        },
        {
          "internalType": "address[]",
          "name": "path",
          "type": "address[]"
        }
      ],
      "name": "getAmountsOut",
      "outputs": [
        {
          "internalType": "uint256[]",
          "name": "amounts",
          "type": "uint256[]"
        }
      ],
      "stateMutability": "view",
      "type": "function"
    },
    {
      "inputs": [
        {
          "internalType": "uint256",
          "name": "dayIndex",
          "type": "uint256"
        }
      ],
      "name": "getLeaderboard",
      "outputs": [
        {
          "internalType": "address[]",
          "name": "users",
          "type": "address[]"
        },
        {
          "internalType": "uint256[]",
          "name": "volumes",
          "type": "uint256[]"
        }
      ],
      "stateMutability": "view",
      "type": "function"
    },
    {
      "inputs": [
        {
          "internalType": "address",
          "name": "",
          "type": "address"
        }
      ],
      "name": "lastClaimedDay",
      "outputs": [
        {
          "internalType": "uint256",
          "name": "",
          "type": "uint256"
        }
      ],
      "stateMutability": "view",
      "type": "function"
    },
    {
      "inputs": [],
      "name": "owner",
      "outputs": [
        {
          "internalType": "address",
          "name": "",
          "type": "address"
        }
      ],
      "stateMutability": "view",
      "type": "function"
    },
    {
      "inputs": [
        {
          "internalType": "address",
          "name": "user",
          "type": "address"
        }
      ],
      "name": "pendingRewards",
      "outputs": [
        {
          "internalType": "uint256",
          "name": "",
          "type": "uint256"
        }
      ],
      "stateMutability": "view",
      "type": "function"
    },
    {
      "inputs": [],
      "name": "pepperToken",
      "outputs": [
        {
          "internalType": "address",
          "name": "",
          "type": "address"
        }
      ],
      "stateMutability": "view",
      "type": "function"
    },
    {
      "inputs": [
        {
          "internalType": "uint256",
          "name": "amountA",
          "type": "uint256"
        },
        {
          "internalType": "uint256",
          "name": "reserveA",
          "type": "uint256"
        },
        {
          "internalType": "uint256",
          "name": "reserveB",
          "type": "uint256"
        }
      ],
      "name": "quote",
      "outputs": [
        {
          "internalType": "uint256",
          "name": "amountB",
          "type": "uint256"
        }
      ],
      "stateMutability": "pure",
      "type": "function"
    },
    {
      "inputs": [
        {
          "internalType": "address",
          "name": "tokenA",
          "type": "address"
        },
        {
          "internalType": "address",
          "name": "tokenB",
          "type": "address"
        },
        {
          "internalType": "uint256",
          "name": "liquidity",
          "type": "uint256"
        },
        {
          "internalType": "uint256",
          "name": "amountAMin",
          "type": "uint256"
        },
        {
          "internalType": "uint256",
          "name": "amountBMin",
          "type": "uint256"
        },
        {
          "internalType": "address",
          "name": "to",
          "type": "address"
        },
        {
          "internalType": "uint256",
          "name": "deadline",
          "type": "uint256"
        }
      ],
      "name": "removeLiquidity",
      "outputs": [
        {
          "internalType": "uint256",
          "name": "amountA",
          "type": "uint256"
        },
        {
          "internalType": "uint256",
          "name": "amountB",
          "type": "uint256"
        }
      ],
      "stateMutability": "nonpayable",
      "type": "function"
    },
    {
      "inputs": [
        {
          "internalType": "address",
          "name": "token",
          "type": "address"
        },
        {
          "internalType": "uint256",
          "name": "liquidity",
          "type": "uint256"
        },
        {
          "internalType": "uint256",
          "name": "amountTokenMin",
          "type": "uint256"
        },
        {
          "internalType": "uint256",
          "name": "amountETHMin",
          "type": "uint256"
        },
        {
          "internalType": "address",
          "name": "to",
          "type": "address"
        },
        {
          "internalType": "uint256",
          "name": "deadline",
          "type": "uint256"
        }
      ],
      "name": "removeLiquidityETH",
      "outputs": [
        {
          "internalType": "uint256",
          "name": "amountToken",
          "type": "uint256"
        },
        {
          "internalType": "uint256",
          "name": "amountETH",
          "type": "uint256"
        }
      ],
      "stateMutability": "nonpayable",
      "type": "function"
    },
    {
      "inputs": [
        {
          "internalType": "address",
          "name": "token",
          "type": "address"
        },
        {
          "internalType": "uint256",
          "name": "liquidity",
          "type": "uint256"
        },
        {
          "internalType": "uint256",
          "name": "amountTokenMin",
          "type": "uint256"
        },
        {
          "internalType": "uint256",
          "name": "amountETHMin",
          "type": "uint256"
        },
        {
          "internalType": "address",
          "name": "to",
          "type": "address"
        },
        {
          "internalType": "uint256",
          "name": "deadline",
          "type": "uint256"
        }
      ],
      "name": "removeLiquidityETHSupportingFeeOnTransferTokens",
      "outputs": [
        {
          "internalType": "uint256",
          "name": "amountETH",
          "type": "uint256"
        }
      ],
      "stateMutability": "nonpayable",
      "type": "function"
    },
    {
      "inputs": [
        {
          "internalType": "address",
          "name": "token",
          "type": "address"
        },
        {
          "internalType": "uint256",
          "name": "liquidity",
          "type": "uint256"
        },
        {
          "internalType": "uint256",
          "name": "amountTokenMin",
          "type": "uint256"
        },
        {
          "internalType": "uint256",
          "name": "amountETHMin",
          "type": "uint256"
        },
        {
          "internalType": "address",
          "name": "to",
          "type": "address"
        },
        {
          "internalType": "uint256",
          "name": "deadline",
          "type": "uint256"
        },
        {
          "internalType": "bool",
          "name": "approveMax",
          "type": "bool"
        },
        {
          "internalType": "uint8",
          "name": "v",
          "type": "uint8"
        },
        {
          "internalType": "bytes32",
          "name": "r",
          "type": "bytes32"
        },
        {
          "internalType": "bytes32",
          "name": "s",
          "type": "bytes32"
        }
      ],
      "name": "removeLiquidityETHWithPermit",
      "outputs": [
        {
          "internalType": "uint256",
          "name": "amountToken",
          "type": "uint256"
        },
        {
          "internalType": "uint256",
          "name": "amountETH",
          "type": "uint256"
        }
      ],
      "stateMutability": "nonpayable",
      "type": "function"
    },
    {
      "inputs": [
        {
          "internalType": "address",
          "name": "token",
          "type": "address"
        },
        {
          "internalType": "uint256",
          "name": "liquidity",
          "type": "uint256"
        },
        {
          "internalType": "uint256",
          "name": "amountTokenMin",
          "type": "uint256"
        },
        {
          "internalType": "uint256",
          "name": "amountETHMin",
          "type": "uint256"
        },
        {
          "internalType": "address",
          "name": "to",
          "type": "address"
        },
        {
          "internalType": "uint256",
          "name": "deadline",
          "type": "uint256"
        },
        {
          "internalType": "bool",
          "name": "approveMax",
          "type": "bool"
        },
        {
          "internalType": "uint8",
          "name": "v",
          "type": "uint8"
        },
        {
          "internalType": "bytes32",
          "name": "r",
          "type": "bytes32"
        },
        {
          "internalType": "bytes32",
          "name": "s",
          "type": "bytes32"
        }
      ],
      "name": "removeLiquidityETHWithPermitSupportingFeeOnTransferTokens",
      "outputs": [
        {
          "internalType": "uint256",
          "name": "amountETH",
          "type": "uint256"
        }
      ],
      "stateMutability": "nonpayable",
      "type": "function"
    },
    {
      "inputs": [
        {
          "internalType": "address",
          "name": "tokenA",
          "type": "address"
        },
        {
          "internalType": "address",
          "name": "tokenB",
          "type": "address"
        },
        {
          "internalType": "uint256",
          "name": "liquidity",
          "type": "uint256"
        },
        {
          "internalType": "uint256",
          "name": "amountAMin",
          "type": "uint256"
        },
        {
          "internalType": "uint256",
          "name": "amountBMin",
          "type": "uint256"
        },
        {
          "internalType": "address",
          "name": "to",
          "type": "address"
        },
        {
          "internalType": "uint256",
          "name": "deadline",
          "type": "uint256"
        },
        {
          "internalType": "bool",
          "name": "approveMax",
          "type": "bool"
        },
        {
          "internalType": "uint8",
          "name": "v",
          "type": "uint8"
        },
        {
          "internalType": "bytes32",
          "name": "r",
          "type": "bytes32"
        },
        {
          "internalType": "bytes32",
          "name": "s",
          "type": "bytes32"
        }
      ],
      "name": "removeLiquidityWithPermit",
      "outputs": [
        {
          "internalType": "uint256",
          "name": "amountA",
          "type": "uint256"
        },
        {
          "internalType": "uint256",
          "name": "amountB",
          "type": "uint256"
        }
      ],
      "stateMutability": "nonpayable",
      "type": "function"
    },
    {
      "inputs": [],
      "name": "startCompetition",
      "outputs": [],
      "stateMutability": "nonpayable",
      "type": "function"
    },
    {
      "inputs": [
        {
          "internalType": "uint256",
          "name": "amountOut",
          "type": "uint256"
        },
        {
          "internalType": "address[]",
          "name": "path",
          "type": "address[]"
        },
        {
          "internalType": "address",
          "name": "to",
          "type": "address"
        },
        {
          "internalType": "uint256",
          "name": "deadline",
          "type": "uint256"
        }
      ],
      "name": "swapETHForExactTokens",
      "outputs": [
        {
          "internalType": "uint256[]",
          "name": "amounts",
          "type": "uint256[]"
        }
      ],
      "stateMutability": "payable",
      "type": "function"
    },
    {
      "inputs": [
        {
          "internalType": "uint256",
          "name": "amountOutMin",
          "type": "uint256"
        },
        {
          "internalType": "address[]",
          "name": "path",
          "type": "address[]"
        },
        {
          "internalType": "address",
          "name": "to",
          "type": "address"
        },
        {
          "internalType": "uint256",
          "name": "deadline",
          "type": "uint256"
        }
      ],
      "name": "swapExactETHForTokens",
      "outputs": [
        {
          "internalType": "uint256[]",
          "name": "amounts",
          "type": "uint256[]"
        }
      ],
      "stateMutability": "payable",
      "type": "function"
    },
    {
      "inputs": [
        {
          "internalType": "uint256",
          "name": "amountOutMin",
          "type": "uint256"
        },
        {
          "internalType": "address[]",
          "name": "path",
          "type": "address[]"
        },
        {
          "internalType": "address",
          "name": "to",
          "type": "address"
        },
        {
          "internalType": "uint256",
          "name": "deadline",
          "type": "uint256"
        }
      ],
      "name": "swapExactETHForTokensSupportingFeeOnTransferTokens",
      "outputs": [],
      "stateMutability": "payable",
      "type": "function"
    },
    {
      "inputs": [
        {
          "internalType": "uint256",
          "name": "amountIn",
          "type": "uint256"
        },
        {
          "internalType": "uint256",
          "name": "amountOutMin",
          "type": "uint256"
        },
        {
          "internalType": "address[]",
          "name": "path",
          "type": "address[]"
        },
        {
          "internalType": "address",
          "name": "to",
          "type": "address"
        },
        {
          "internalType": "uint256",
          "name": "deadline",
          "type": "uint256"
        }
      ],
      "name": "swapExactTokensForETH",
      "outputs": [
        {
          "internalType": "uint256[]",
          "name": "amounts",
          "type": "uint256[]"
        }
      ],
      "stateMutability": "nonpayable",
      "type": "function"
    },
    {
      "inputs": [
        {
          "internalType": "uint256",
          "name": "amountIn",
          "type": "uint256"
        },
        {
          "internalType": "uint256",
          "name": "amountOutMin",
          "type": "uint256"
        },
        {
          "internalType": "address[]",
          "name": "path",
          "type": "address[]"
        },
        {
          "internalType": "address",
          "name": "to",
          "type": "address"
        },
        {
          "internalType": "uint256",
          "name": "deadline",
          "type": "uint256"
        }
      ],
      "name": "swapExactTokensForETHSupportingFeeOnTransferTokens",
      "outputs": [],
      "stateMutability": "nonpayable",
      "type": "function"
    },
    {
      "inputs": [
        {
          "internalType": "uint256",
          "name": "amountIn",
          "type": "uint256"
        },
        {
          "internalType": "uint256",
          "name": "amountOutMin",
          "type": "uint256"
        },
        {
          "internalType": "address[]",
          "name": "path",
          "type": "address[]"
        },
        {
          "internalType": "address",
          "name": "to",
          "type": "address"
        },
        {
          "internalType": "uint256",
          "name": "deadline",
          "type": "uint256"
        }
      ],
      "name": "swapExactTokensForTokens",
      "outputs": [
        {
          "internalType": "uint256[]",
          "name": "amounts",
          "type": "uint256[]"
        }
      ],
      "stateMutability": "nonpayable",
      "type": "function"
    },
    {
      "inputs": [
        {
          "internalType": "uint256",
          "name": "amountIn",
          "type": "uint256"
        },
        {
          "internalType": "uint256",
          "name": "amountOutMin",
          "type": "uint256"
        },
        {
          "internalType": "address[]",
          "name": "path",
          "type": "address[]"
        },
        {
          "internalType": "address",
          "name": "to",
          "type": "address"
        },
        {
          "internalType": "uint256",
          "name": "deadline",
          "type": "uint256"
        }
      ],
      "name": "swapExactTokensForTokensSupportingFeeOnTransferTokens",
      "outputs": [],
      "stateMutability": "nonpayable",
      "type": "function"
    },
    {
      "inputs": [
        {
          "internalType": "uint256",
          "name": "amountOut",
          "type": "uint256"
        },
        {
          "internalType": "uint256",
          "name": "amountInMax",
          "type": "uint256"
        },
        {
          "internalType": "address[]",
          "name": "path",
          "type": "address[]"
        },
        {
          "internalType": "address",
          "name": "to",
          "type": "address"
        },
        {
          "internalType": "uint256",
          "name": "deadline",
          "type": "uint256"
        }
      ],
      "name": "swapTokensForExactETH",
      "outputs": [
        {
          "internalType": "uint256[]",
          "name": "amounts",
          "type": "uint256[]"
        }
      ],
      "stateMutability": "nonpayable",
      "type": "function"
    },
    {
      "inputs": [
        {
          "internalType": "uint256",
          "name": "amountOut",
          "type": "uint256"
        },
        {
          "internalType": "uint256",
          "name": "amountInMax",
          "type": "uint256"
        },
        {
          "internalType": "address[]",
          "name": "path",
          "type": "address[]"
        },
        {
          "internalType": "address",
          "name": "to",
          "type": "address"
        },
        {
          "internalType": "uint256",
          "name": "deadline",
          "type": "uint256"
        }
      ],
      "name": "swapTokensForExactTokens",
      "outputs": [
        {
          "internalType": "uint256[]",
          "name": "amounts",
          "type": "uint256[]"
        }
      ],
      "stateMutability": "nonpayable",
      "type": "function"
    },
    {
      "inputs": [
        {
          "internalType": "address",
          "name": "newOwner",
          "type": "address"
        }
      ],
      "name": "transferOwnership",
      "outputs": [],
      "stateMutability": "nonpayable",
      "type": "function"
    },
    {
      "inputs": [
        {
          "internalType": "uint256",
          "name": "_newDuration",
          "type": "uint256"
        },
        {
          "internalType": "uint256",
          "name": "_newDailyRewardPool",
          "type": "uint256"
        }
      ],
      "name": "updateCompetitionConfig",
      "outputs": [],
      "stateMutability": "nonpayable",
      "type": "function"
    },
    {
      "inputs": [],
      "name": "wchzToken",
      "outputs": [
        {
          "internalType": "address",
          "name": "",
          "type": "address"
        }
      ],
      "stateMutability": "view",
      "type": "function"
    },
    {
      "stateMutability": "payable",
      "type": "receive"
    }
  ],
  "bytecode": "0x6101006040523480156200001257600080fd5b506040516200611838038062006118833981810160405260c08110156200003857600080fd5b508051602082015160408301516060840151608085015160a090950151600160005593949293919290916001600160a01b038616158015906200008357506001600160a01b03851615155b620000c9576040805162461bcd60e51b81526020600482015260116024820152705a65726f206164647265737320636f726560781b604482015290519081900360640190fd5b6001600160a01b03841615801590620000ea57506001600160a01b03831615155b6200013c576040805162461bcd60e51b815260206004820152601360248201527f5a65726f206164647265737320746f6b656e7300000000000000000000000000604482015290519081900360640190fd5b600180546001600160a01b031916339081179091556040516000907f8be0079c531659141344cd1fd0a4f28419497f9722a3daafe3b4186f6b6457e0908290a36001600160601b0319606087811b821660805286811b821660a05285811b821660c05284901b1660e0526002919091556003556001600160a01b0393841693928316929182169116615dd662000342600039806117cb5280611c6052806123885280612ed25250806113d152806117695280611c0d528061233552806124615280612bf45280612e7f52806137045280613b5e52806145a95250806101f552806110c052806110fb528061148752806116a55280611cb75280611d8e5280611f4852806123df5280612546528061260252806126bd52806127ac52806128e95280612a2f5280612ab75280612f2952806130d652806131515280613200528061333b52806133d052806134445280613c015280613f675280613fbd5280613ff15280614065528061427452806143b7528061443f52508061151552806115ec528061179a52806117f75280611b035280611e1c5280611f265280612106528061297c5280612ae95280612d785280613476528061378252806139dd5280613a065280613bdf5280613d4c5280613f9b528061430752806144715280614daa5280614ded52806151c952806153855280615872528061592052806159a05250615dd66000f3fe6080604052600436106101e55760003560e01c806302751cec1461026a578063054d50d4146102d65780630b83a7271461031e57806318cbafe5146103335780631d583e0d146104195780631f00ca74146104435780632107cdfd146104f85780632195995c1461052957806323302a9a146105a75780632716a509146105d757806329e6d681146105ec57806331d7a2621461061f57806338ed1739146106525780634a25d94a146106e857806352d5363d1461077e5780635a4d30cd146107a75780635b0d5984146107bc5780635c11d7951461082f578063614466c7146108c557806368a89f34146108da578063791ac947146108ef5780637ff36ab51461098557806385f8c25914610a095780638803dbee14610a3f5780638da5cb5b14610ad5578063a34b46fe14610aea578063ad5c464814610bad578063ad615dec14610bc2578063af2979eb14610bf8578063b6f9de9514610c4b578063baa2abde14610ccf578063be9b13ee14610d2c578063c45a015514610d65578063d06ca61f14610d7a578063d3e66a9e14610e2f578063dbb8cc4614610e44578063de1a318714610e59578063ded9382a14610e83578063e8e3370014610ef6578063f2fde38b14610f76578063f305d71914610fa9578063fb3bdb4114610fef57610265565b3661026557336001600160a01b037f00000000000000000000000000000000000000000000000000000000000000001614610263576040805162461bcd60e51b815260206004820152601960248201527809edcd8f240c2c6c6cae0e8408aa89040cce4deda40ae8aa89603b1b604482015290519081900360640190fd5b005b600080fd5b34801561027657600080fd5b506102bd600480360360c081101561028d57600080fd5b506001600160a01b0381358116916020810135916040820135916060810135916080820135169060a00135611073565b6040805192835260208301919091528051918290030190f35b3480156102e257600080fd5b5061030c600480360360608110156102f957600080fd5b508035906020810135906040013561118d565b60408051918252519081900360200190f35b34801561032a57600080fd5b506102636111a2565b34801561033f57600080fd5b506103c9600480360360a081101561035657600080fd5b813591602081013591810190606081016040820135600160201b81111561037c57600080fd5b82018360208201111561038e57600080fd5b803590602001918460208302840111600160201b831117156103af57600080fd5b91935091506001600160a01b038135169060200135611437565b60408051602080825283518183015283519192839290830191858101910280838360005b838110156104055781810151838201526020016103ed565b505050509050019250505060405180910390f35b34801561042557600080fd5b506102636004803603602081101561043c57600080fd5b5035611764565b34801561044f57600080fd5b506103c96004803603604081101561046657600080fd5b81359190810190604081016020820135600160201b81111561048757600080fd5b82018360208201111561049957600080fd5b803590602001918460208302840111600160201b831117156104ba57600080fd5b919080806020026020016040519081016040528093929190818152602001838360200280828437600092019190915250929550611793945050505050565b34801561050457600080fd5b5061050d6117c9565b604080516001600160a01b039092168252519081900360200190f35b34801561053557600080fd5b506102bd600480360361016081101561054d57600080fd5b506001600160a01b038135811691602081013582169160408201359160608101359160808201359160a08101359091169060c08101359060e081013515159060ff61010082013516906101208101359061014001356117ed565b3480156105b357600080fd5b50610263600480360360408110156105ca57600080fd5b50803590602001356118e7565b3480156105e357600080fd5b5061030c61197b565b3480156105f857600080fd5b5061030c6004803603602081101561060f57600080fd5b50356001600160a01b0316611981565b34801561062b57600080fd5b5061030c6004803603602081101561064257600080fd5b50356001600160a01b0316611993565b34801561065e57600080fd5b506103c9600480360360a081101561067557600080fd5b813591602081013591810190606081016040820135600160201b81111561069b57600080fd5b8201836020820111156106ad57600080fd5b803590602001918460208302840111600160201b831117156106ce57600080fd5b91935091506001600160a01b038135169060200135611a49565b3480156106f457600080fd5b506103c9600480360360a081101561070b57600080fd5b813591602081013591810190606081016040820135600160201b81111561073157600080fd5b82018360208201111561074357600080fd5b803590602001918460208302840111600160201b8311171561076457600080fd5b91935091506001600160a01b038135169060200135611d3e565b34801561078a57600080fd5b50610793611eca565b604080519115158252519081900360200190f35b3480156107b357600080fd5b5061030c611ed3565b3480156107c857600080fd5b5061030c60048036036101408110156107e057600080fd5b506001600160a01b0381358116916020810135916040820135916060810135916080820135169060a08101359060c081013515159060ff60e08201351690610100810135906101200135611ed9565b34801561083b57600080fd5b50610263600480360360a081101561085257600080fd5b813591602081013591810190606081016040820135600160201b81111561087857600080fd5b82018360208201111561088a57600080fd5b803590602001918460208302840111600160201b831117156108ab57600080fd5b91935091506001600160a01b03813516906020013561202d565b3480156108d157600080fd5b5061050d61245f565b3480156108e657600080fd5b5061030c612483565b3480156108fb57600080fd5b50610263600480360360a081101561091257600080fd5b813591602081013591810190606081016040820135600160201b81111561093857600080fd5b82018360208201111561094a57600080fd5b803590602001918460208302840111600160201b8311171561096b57600080fd5b91935091506001600160a01b038135169060200135612489565b6103c96004803603608081101561099b57600080fd5b81359190810190604081016020820135600160201b8111156109bc57600080fd5b8201836020820111156109ce57600080fd5b803590602001918460208302840111600160201b831117156109ef57600080fd5b91935091506001600160a01b038135169060200135612832565b348015610a1557600080fd5b5061030c60048036036060811015610a2c57600080fd5b5080359060208101359060400135612cb1565b348015610a4b57600080fd5b506103c9600480360360a0811015610a6257600080fd5b813591602081013591810190606081016040820135600160201b811115610a8857600080fd5b820183602082011115610a9a57600080fd5b803590602001918460208302840111600160201b83111715610abb57600080fd5b91935091506001600160a01b038135169060200135612cbe565b348015610ae157600080fd5b5061050d612f89565b348015610af657600080fd5b50610b1460048036036020811015610b0d57600080fd5b5035612f98565b604051808060200180602001838103835285818151815260200191508051906020019060200280838360005b83811015610b58578181015183820152602001610b40565b50505050905001838103825284818151815260200191508051906020019060200280838360005b83811015610b97578181015183820152602001610b7f565b5050505090500194505050505060405180910390f35b348015610bb957600080fd5b5061050d6130d4565b348015610bce57600080fd5b5061030c60048036036060811015610be557600080fd5b50803590602081013590604001356130f8565b348015610c0457600080fd5b5061030c600480360360c0811015610c1b57600080fd5b506001600160a01b0381358116916020810135916040820135916060810135916080820135169060a00135613105565b61026360048036036080811015610c6157600080fd5b81359190810190604081016020820135600160201b811115610c8257600080fd5b820183602082011115610c9457600080fd5b803590602001918460208302840111600160201b83111715610cb557600080fd5b91935091506001600160a01b038135169060200135613286565b348015610cdb57600080fd5b506102bd600480360360e0811015610cf257600080fd5b506001600160a01b038135811691602081013582169160408201359160608101359160808201359160a08101359091169060c00135613734565b348015610d3857600080fd5b5061030c60048036036040811015610d4f57600080fd5b50803590602001356001600160a01b0316613978565b348015610d7157600080fd5b5061050d6139db565b348015610d8657600080fd5b506103c960048036036040811015610d9d57600080fd5b81359190810190604081016020820135600160201b811115610dbe57600080fd5b820183602082011115610dd057600080fd5b803590602001918460208302840111600160201b83111715610df157600080fd5b9190808060200260200160405190810160405280939291908181526020018383602002808284376000920191909152509295506139ff945050505050565b348015610e3b57600080fd5b50610263613a2c565b348015610e5057600080fd5b5061030c613ae6565b348015610e6557600080fd5b5061026360048036036020811015610e7c57600080fd5b5035613aec565b348015610e8f57600080fd5b506102bd6004803603610140811015610ea757600080fd5b506001600160a01b0381358116916020810135916040820135916060810135916080820135169060a08101359060c081013515159060ff60e08201351690610100810135906101200135613bd5565b348015610f0257600080fd5b50610f586004803603610100811015610f1a57600080fd5b506001600160a01b038135811691602081013582169160408201359160608101359160808201359160a08101359160c0820135169060e00135613ce9565b60408051938452602084019290925282820152519081900360600190f35b348015610f8257600080fd5b5061026360048036036020811015610f9957600080fd5b50356001600160a01b0316613e25565b610f58600480360360c0811015610fbf57600080fd5b506001600160a01b0381358116916020810135916040820135916060810135916080820135169060a00135613f18565b6103c96004803603608081101561100557600080fd5b81359190810190604081016020820135600160201b81111561102657600080fd5b82018360208201111561103857600080fd5b803590602001918460208302840111600160201b8311171561105957600080fd5b91935091506001600160a01b0381351690602001356141bd565b60008082428110156110ba576040805162461bcd60e51b81526020600482015260186024820152600080516020615d61833981519152604482015290519081900360640190fd5b6110e9897f00000000000000000000000000000000000000000000000000000000000000008a8a8a308a613734565b90935091506110f989868561460e565b7f00000000000000000000000000000000000000000000000000000000000000006001600160a01b0316632e1a7d4d836040518263ffffffff1660e01b815260040180828152602001915050600060405180830381600087803b15801561115f57600080fd5b505af1158015611173573d6000803e3d6000fd5b505050506111818583614778565b50965096945050505050565b600061119a84848461486b565b949350505050565b600260005414156111fa576040805162461bcd60e51b815260206004820152601f60248201527f5265656e7472616e637947756172643a207265656e7472616e742063616c6c00604482015290519081900360640190fd5b600260005560085460ff161561126e57600060025460075442038161121b57fe5b049050801561126c57600680548281019182905560025460078054918502909101905560408051828152602081019390935280519192600080516020615c12833981519152929081900390910190a1505b505b600654336000908152600560205260409020546001018181106112cb576040805162461bcd60e51b815260206004820152601060248201526f4e6f7468696e6720746f20636c61696d60801b604482015290519081900360640190fd5b6000815b8381101561136c576000818152600460209081526040808320338452909152902054806112fc5750611364565b60006113088333613978565b905080611316575050611364565b611326848263ffffffff61495b16565b604080518381529051919550339185917f24b5efa61dd1cfc659205a97fb8ed868f3cb8c81922bab2b96423e5de1de2cb7919081900360200190a350505b6001016112cf565b50600081116113b5576040805162461bcd60e51b815260206004820152601060248201526f4e6f7468696e6720746f20636c61696d60801b604482015290519081900360640190fd5b336000818152600560205260409020600019850190556113f7907f0000000000000000000000000000000000000000000000000000000000000000908361460e565b60408051828152905133917ffc30cddea38e2bf4d6ea7d3f9ed3b6ad7f176419f4963bd81318067a4aee73fe919081900360200190a25050600160005550565b6060814281101561147d576040805162461bcd60e51b81526020600482015260186024820152600080516020615d61833981519152604482015290519081900360640190fd5b6001600160a01b037f000000000000000000000000000000000000000000000000000000000000000016868660001981018181106114b757fe5b905060200201356001600160a01b03166001600160a01b031614611510576040805162461bcd60e51b815260206004820152601d6024820152600080516020615c7e833981519152604482015290519081900360640190fd5b61156e7f0000000000000000000000000000000000000000000000000000000000000000898888808060200260200160405190810160405280939291908181526020018383602002808284376000920191909152506149aa92505050565b9150868260018451038151811061158157fe5b602002602001015110156115c65760405162461bcd60e51b815260040180806020018281038252602b815260200180615ce7602b913960400191505060405180910390fd5b611664868660008181106115d657fe5b905060200201356001600160a01b03163361164a7f00000000000000000000000000000000000000000000000000000000000000008a8a600081811061161857fe5b905060200201356001600160a01b03168b8b600181811061163557fe5b905060200201356001600160a01b0316614ae3565b8560008151811061165757fe5b6020026020010151614b9e565b6116a382878780806020026020016040519081016040528093929190818152602001838360200280828437600092019190915250309250614cfb915050565b7f00000000000000000000000000000000000000000000000000000000000000006001600160a01b0316632e1a7d4d836001855103815181106116e257fe5b60200260200101516040518263ffffffff1660e01b815260040180828152602001915050600060405180830381600087803b15801561172057600080fd5b505af1158015611734573d6000803e3d6000fd5b50505050611759848360018551038151811061174c57fe5b6020026020010151614778565b509695505050505050565b6117907f0000000000000000000000000000000000000000000000000000000000000000333084614b9e565b50565b60606117c07f00000000000000000000000000000000000000000000000000000000000000008484614f41565b90505b92915050565b7f000000000000000000000000000000000000000000000000000000000000000081565b600080600061181d7f00000000000000000000000000000000000000000000000000000000000000008f8f614ae3565b905060008761182c578c611830565b6000195b6040805163d505accf60e01b815233600482015230602482015260448101839052606481018c905260ff8a16608482015260a4810189905260c4810188905290519192506001600160a01b0384169163d505accf9160e48082019260009290919082900301818387803b1580156118a657600080fd5b505af11580156118ba573d6000803e3d6000fd5b505050506118cd8f8f8f8f8f8f8f613734565b809450819550505050509b509b9950505050505050505050565b6001546001600160a01b03163314611932576040805162461bcd60e51b81526020600482015260096024820152682737ba1037bbb732b960b91b604482015290519081900360640190fd5b60028290556003819055604080518381526020810183905281517f170ce375d10456bcec8cbbb16216878c911c46dee3c620c17c6c7f76a5fdb959929181900390910190a15050565b60025481565b60056020526000908152604090205481565b6006546001600160a01b03821660009081526005602052604081205490919082906119c590600163ffffffff61495b16565b90508181106119d957600092505050611a44565b6000815b83811015611a3e5760008181526004602090815260408083206001600160a01b038a16845290915290205480611a135750611a36565b6000611a1f8389613978565b9050611a31848263ffffffff61495b16565b935050505b6001016119dd565b50925050505b919050565b60608142811015611a8f576040805162461bcd60e51b81526020600482015260186024820152600080516020615d61833981519152604482015290519081900360640190fd5b60085460ff1615611afe576000600254600754420381611aab57fe5b0490508015611afc57600680548281019182905560025460078054918502909101905560408051828152602081019390935280519192600080516020615c12833981519152929081900390910190a1505b505b611b5c7f0000000000000000000000000000000000000000000000000000000000000000898888808060200260200160405190810160405280939291908181526020018383602002808284376000920191909152506149aa92505050565b91508682600184510381518110611b6f57fe5b60200260200101511015611bb45760405162461bcd60e51b815260040180806020018281038252602b815260200180615ce7602b913960400191505060405180910390fd5b611bc4868660008181106115d657fe5b611c0382878780806020026020016040519081016040528093929190818152602001838360200280828437600092019190915250899250614cfb915050565b6001600160a01b037f00000000000000000000000000000000000000000000000000000000000000001686866000198101818110611c3d57fe5b905060200201356001600160a01b03166001600160a01b0316148015611d0757507f00000000000000000000000000000000000000000000000000000000000000006001600160a01b031686866000818110611c9557fe5b905060200201356001600160a01b03166001600160a01b03161480611d0757507f00000000000000000000000000000000000000000000000000000000000000006001600160a01b031686866000818110611cec57fe5b905060200201356001600160a01b03166001600160a01b0316145b1561175957600082600184510381518110611d1e57fe5b60200260200101519050611d323382615066565b50509695505050505050565b60608142811015611d84576040805162461bcd60e51b81526020600482015260186024820152600080516020615d61833981519152604482015290519081900360640190fd5b6001600160a01b037f00000000000000000000000000000000000000000000000000000000000000001686866000198101818110611dbe57fe5b905060200201356001600160a01b03166001600160a01b031614611e17576040805162461bcd60e51b815260206004820152601d6024820152600080516020615c7e833981519152604482015290519081900360640190fd5b611e757f000000000000000000000000000000000000000000000000000000000000000089888880806020026020016040519081016040528093929190818152602001838360200280828437600092019190915250614f4192505050565b91508682600081518110611e8557fe5b602002602001015111156115c65760405162461bcd60e51b8152600401808060200182810382526027815260200180615c576027913960400191505060405180910390fd5b60085460ff1681565b60075481565b60008542811015611f1f576040805162461bcd60e51b81526020600482015260186024820152600080516020615d61833981519152604482015290519081900360640190fd5b6000611f6c7f00000000000000000000000000000000000000000000000000000000000000008e7f0000000000000000000000000000000000000000000000000000000000000000614ae3565b9050600087611f7b578c611f7f565b6000195b6040805163d505accf60e01b815233600482015230602482015260448101839052606481018c905260ff8a16608482015260a4810189905260c4810188905290519192506001600160a01b0384169163d505accf9160e48082019260009290919082900301818387803b158015611ff557600080fd5b505af1158015612009573d6000803e3d6000fd5b5050505061201b8e8e8e8e8e8e613105565b9e9d5050505050505050505050505050565b8042811015612071576040805162461bcd60e51b81526020600482015260186024820152600080516020615d61833981519152604482015290519081900360640190fd5b60085460ff16156120e057600060025460075442038161208d57fe5b04905080156120de57600680548281019182905560025460078054918502909101905560408051828152602081019390935280519192600080516020615c12833981519152929081900390910190a1505b505b612155858560008181106120f057fe5b905060200201356001600160a01b03163361214f7f00000000000000000000000000000000000000000000000000000000000000008989600081811061213257fe5b905060200201356001600160a01b03168a8a600181811061163557fe5b8a614b9e565b60008585600019810181811061216757fe5b905060200201356001600160a01b03166001600160a01b03166370a08231856040518263ffffffff1660e01b815260040180826001600160a01b03166001600160a01b0316815260200191505060206040518083038186803b1580156121cc57600080fd5b505afa1580156121e0573d6000803e3d6000fd5b505050506040513d60208110156121f657600080fd5b50516040805160208881028281018201909352888252929350612238929091899189918291850190849080828437600092019190915250889250615172915050565b60008686600019810181811061224a57fe5b905060200201356001600160a01b03166001600160a01b03166370a08231866040518263ffffffff1660e01b815260040180826001600160a01b03166001600160a01b0316815260200191505060206040518083038186803b1580156122af57600080fd5b505afa1580156122c3573d6000803e3d6000fd5b505050506040513d60208110156122d957600080fd5b50519050876122ee828463ffffffff6154ba16565b101561232b5760405162461bcd60e51b815260040180806020018281038252602b815260200180615ce7602b913960400191505060405180910390fd5b6001600160a01b037f0000000000000000000000000000000000000000000000000000000000000000168787600019810181811061236557fe5b905060200201356001600160a01b03166001600160a01b031614801561242f57507f00000000000000000000000000000000000000000000000000000000000000006001600160a01b0316878760008181106123bd57fe5b905060200201356001600160a01b03166001600160a01b0316148061242f57507f00000000000000000000000000000000000000000000000000000000000000006001600160a01b03168787600081811061241457fe5b905060200201356001600160a01b03166001600160a01b0316145b15612454576000612446828463ffffffff6154ba16565b90506124523382615066565b505b505050505050505050565b7f000000000000000000000000000000000000000000000000000000000000000081565b60035481565b80428110156124cd576040805162461bcd60e51b81526020600482015260186024820152600080516020615d61833981519152604482015290519081900360640190fd5b60085460ff161561253c5760006002546007544203816124e957fe5b049050801561253a57600680548281019182905560025460078054918502909101905560408051828152602081019390935280519192600080516020615c12833981519152929081900390910190a1505b505b6001600160a01b037f0000000000000000000000000000000000000000000000000000000000000000168585600019810181811061257657fe5b905060200201356001600160a01b03166001600160a01b0316146125cf576040805162461bcd60e51b815260206004820152601d6024820152600080516020615c7e833981519152604482015290519081900360640190fd5b6125df858560008181106120f057fe5b604080516370a0823160e01b815230600482015290516000916001600160a01b037f000000000000000000000000000000000000000000000000000000000000000016916370a0823191602480820192602092909190829003018186803b15801561264957600080fd5b505afa15801561265d573d6000803e3d6000fd5b505050506040513d602081101561267357600080fd5b505160408051602088810282810182019093528882529293506126b5929091899189918291850190849080828437600092019190915250309250615172915050565b6000612769827f00000000000000000000000000000000000000000000000000000000000000006001600160a01b03166370a08231306040518263ffffffff1660e01b815260040180826001600160a01b03166001600160a01b0316815260200191505060206040518083038186803b15801561273157600080fd5b505afa158015612745573d6000803e3d6000fd5b505050506040513d602081101561275b57600080fd5b50519063ffffffff6154ba16565b9050878110156127aa5760405162461bcd60e51b815260040180806020018281038252602b815260200180615ce7602b913960400191505060405180910390fd5b7f00000000000000000000000000000000000000000000000000000000000000006001600160a01b0316632e1a7d4d826040518263ffffffff1660e01b815260040180828152602001915050600060405180830381600087803b15801561281057600080fd5b505af1158015612824573d6000803e3d6000fd5b505050506124548582614778565b60608142811015612878576040805162461bcd60e51b81526020600482015260186024820152600080516020615d61833981519152604482015290519081900360640190fd5b60085460ff16156128e757600060025460075442038161289457fe5b04905080156128e557600680548281019182905560025460078054918502909101905560408051828152602081019390935280519192600080516020615c12833981519152929081900390910190a1505b505b7f00000000000000000000000000000000000000000000000000000000000000006001600160a01b03168686600081811061291e57fe5b905060200201356001600160a01b03166001600160a01b031614612977576040805162461bcd60e51b815260206004820152601d6024820152600080516020615c7e833981519152604482015290519081900360640190fd5b6129d57f0000000000000000000000000000000000000000000000000000000000000000348888808060200260200160405190810160405280939291908181526020018383602002808284376000920191909152506149aa92505050565b915086826001845103815181106129e857fe5b60200260200101511015612a2d5760405162461bcd60e51b815260040180806020018281038252602b815260200180615ce7602b913960400191505060405180910390fd5b7f00000000000000000000000000000000000000000000000000000000000000006001600160a01b031663d0e30db083600081518110612a6957fe5b60200260200101516040518263ffffffff1660e01b81526004016000604051808303818588803b158015612a9c57600080fd5b505af1158015612ab0573d6000803e3d6000fd5b50505050507f00000000000000000000000000000000000000000000000000000000000000006001600160a01b031663a9059cbb612b157f00000000000000000000000000000000000000000000000000000000000000008989600081811061213257fe5b84600081518110612b2257fe5b60200260200101516040518363ffffffff1660e01b815260040180836001600160a01b03166001600160a01b0316815260200182815260200192505050602060405180830381600087803b158015612b7957600080fd5b505af1158015612b8d573d6000803e3d6000fd5b505050506040513d6020811015612ba357600080fd5b5051612bab57fe5b612bea82878780806020026020016040519081016040528093929190818152602001838360200280828437600092019190915250899250614cfb915050565b6001600160a01b037f00000000000000000000000000000000000000000000000000000000000000001686866000198101818110612c2457fe5b905060200201356001600160a01b03166001600160a01b03161415612c6b57600082600184510381518110612c5557fe5b60200260200101519050612c693382615066565b505b81600081518110612c7857fe5b6020026020010151341115612ca757612ca73383600081518110612c9857fe5b60200260200101513403614778565b5095945050505050565b600061119a84848461550a565b60608142811015612d04576040805162461bcd60e51b81526020600482015260186024820152600080516020615d61833981519152604482015290519081900360640190fd5b60085460ff1615612d73576000600254600754420381612d2057fe5b0490508015612d7157600680548281019182905560025460078054918502909101905560408051828152602081019390935280519192600080516020615c12833981519152929081900390910190a1505b505b612dd17f000000000000000000000000000000000000000000000000000000000000000089888880806020026020016040519081016040528093929190818152602001838360200280828437600092019190915250614f4192505050565b91508682600081518110612de157fe5b60200260200101511115612e265760405162461bcd60e51b8152600401808060200182810382526027815260200180615c576027913960400191505060405180910390fd5b612e36868660008181106115d657fe5b612e7582878780806020026020016040519081016040528093929190818152602001838360200280828437600092019190915250899250614cfb915050565b6001600160a01b037f00000000000000000000000000000000000000000000000000000000000000001686866000198101818110612eaf57fe5b905060200201356001600160a01b03166001600160a01b0316148015612f7957507f00000000000000000000000000000000000000000000000000000000000000006001600160a01b031686866000818110612f0757fe5b905060200201356001600160a01b03166001600160a01b03161480612f7957507f00000000000000000000000000000000000000000000000000000000000000006001600160a01b031686866000818110612f5e57fe5b905060200201356001600160a01b03166001600160a01b0316145b156117595787611d323382615066565b6001546001600160a01b031681565b600081815260046020526040902060028101546060918291806001600160401b0381118015612fc657600080fd5b50604051908082528060200260200182016040528015612ff0578160200160208202803683370190505b509350806001600160401b038111801561300957600080fd5b50604051908082528060200260200182016040528015613033578160200160208202803683370190505b50925060005b818110156130cc57600083600201828154811061305257fe5b9060005260206000200160009054906101000a90046001600160a01b031690508086838151811061307f57fe5b6001600160a01b03928316602091820292909201810191909152908216600090815290859052604090205485518690849081106130b857fe5b602090810291909101015250600101613039565b505050915091565b7f000000000000000000000000000000000000000000000000000000000000000081565b600061119a8484846155fa565b6000814281101561314b576040805162461bcd60e51b81526020600482015260186024820152600080516020615d61833981519152604482015290519081900360640190fd5b61317a887f00000000000000000000000000000000000000000000000000000000000000008989893089613734565b604080516370a0823160e01b815230600482015290519194506131fe92508a9187916001600160a01b038416916370a0823191602480820192602092909190829003018186803b1580156131cd57600080fd5b505afa1580156131e1573d6000803e3d6000fd5b505050506040513d60208110156131f757600080fd5b505161460e565b7f00000000000000000000000000000000000000000000000000000000000000006001600160a01b0316632e1a7d4d836040518263ffffffff1660e01b815260040180828152602001915050600060405180830381600087803b15801561326457600080fd5b505af1158015613278573d6000803e3d6000fd5b505050506117598483614778565b80428110156132ca576040805162461bcd60e51b81526020600482015260186024820152600080516020615d61833981519152604482015290519081900360640190fd5b60085460ff16156133395760006002546007544203816132e657fe5b049050801561333757600680548281019182905560025460078054918502909101905560408051828152602081019390935280519192600080516020615c12833981519152929081900390910190a1505b505b7f00000000000000000000000000000000000000000000000000000000000000006001600160a01b03168585600081811061337057fe5b905060200201356001600160a01b03166001600160a01b0316146133c9576040805162461bcd60e51b815260206004820152601d6024820152600080516020615c7e833981519152604482015290519081900360640190fd5b60003490507f00000000000000000000000000000000000000000000000000000000000000006001600160a01b031663d0e30db0826040518263ffffffff1660e01b81526004016000604051808303818588803b15801561342957600080fd5b505af115801561343d573d6000803e3d6000fd5b50505050507f00000000000000000000000000000000000000000000000000000000000000006001600160a01b031663a9059cbb6134a27f00000000000000000000000000000000000000000000000000000000000000008989600081811061213257fe5b836040518363ffffffff1660e01b815260040180836001600160a01b03166001600160a01b0316815260200182815260200192505050602060405180830381600087803b1580156134f257600080fd5b505af1158015613506573d6000803e3d6000fd5b505050506040513d602081101561351c57600080fd5b505161352457fe5b60008686600019810181811061353657fe5b905060200201356001600160a01b03166001600160a01b03166370a08231866040518263ffffffff1660e01b815260040180826001600160a01b03166001600160a01b0316815260200191505060206040518083038186803b15801561359b57600080fd5b505afa1580156135af573d6000803e3d6000fd5b505050506040513d60208110156135c557600080fd5b505160408051602089810282810182019093528982529293506136079290918a918a918291850190849080828437600092019190915250899250615172915050565b60008787600019810181811061361957fe5b905060200201356001600160a01b03166001600160a01b03166370a08231876040518263ffffffff1660e01b815260040180826001600160a01b03166001600160a01b0316815260200191505060206040518083038186803b15801561367e57600080fd5b505afa158015613692573d6000803e3d6000fd5b505050506040513d60208110156136a857600080fd5b50519050886136bd828463ffffffff6154ba16565b10156136fa5760405162461bcd60e51b815260040180806020018281038252602b815260200180615ce7602b913960400191505060405180910390fd5b6001600160a01b037f0000000000000000000000000000000000000000000000000000000000000000168888600019810181811061241457fe5b600080824281101561377b576040805162461bcd60e51b81526020600482015260186024820152600080516020615d61833981519152604482015290519081900360640190fd5b60006137a87f00000000000000000000000000000000000000000000000000000000000000008c8c614ae3565b604080516323b872dd60e01b81523360048201526001600160a01b03831660248201819052604482018d9052915192935090916323b872dd916064808201926020929091908290030181600087803b15801561380357600080fd5b505af1158015613817573d6000803e3d6000fd5b505050506040513d602081101561382d57600080fd5b50506040805163226bf2d160e21b81526001600160a01b03888116600483015282516000938493928616926389afcb44926024808301939282900301818787803b15801561387a57600080fd5b505af115801561388e573d6000803e3d6000fd5b505050506040513d60408110156138a457600080fd5b508051602090910151909250905060006138be8e8e6156a6565b509050806001600160a01b03168e6001600160a01b0316146138e15781836138e4565b82825b90975095508a8710156139285760405162461bcd60e51b8152600401808060200182810382526026815260200180615c9e6026913960400191505060405180910390fd5b898610156139675760405162461bcd60e51b8152600401808060200182810382526026815260200180615bc46026913960400191505060405180910390fd5b505050505097509795505050505050565b600082815260046020526040812060018101546139995760009150506117c3565b60018101546003546001600160a01b03851660009081526020849052604090205461119a92916139cf919063ffffffff61578416565b9063ffffffff6157e716565b7f000000000000000000000000000000000000000000000000000000000000000081565b60606117c07f000000000000000000000000000000000000000000000000000000000000000084846149aa565b6001546001600160a01b03163314613a77576040805162461bcd60e51b81526020600482015260096024820152682737ba1037bbb732b960b91b604482015290519081900360640190fd5b60085460ff1615613acd576040805162461bcd60e51b815260206004820152601b60248201527a10dbdb5c195d1a5d1a5bdb88185b1c9958591e481cdd185c9d1959602a1b604482015290519081900360640190fd5b6008805460ff1916600190811790915560065542600755565b60065481565b6001546001600160a01b03163314613b37576040805162461bcd60e51b81526020600482015260096024820152682737ba1037bbb732b960b91b604482015290519081900360640190fd5b6040805163a9059cbb60e01b81523360048201526024810183905290516001600160a01b037f0000000000000000000000000000000000000000000000000000000000000000169163a9059cbb9160448083019260209291908290030181600087803b158015613ba657600080fd5b505af1158015613bba573d6000803e3d6000fd5b505050506040513d6020811015613bd057600080fd5b505050565b6000806000613c257f00000000000000000000000000000000000000000000000000000000000000008e7f0000000000000000000000000000000000000000000000000000000000000000614ae3565b9050600087613c34578c613c38565b6000195b6040805163d505accf60e01b815233600482015230602482015260448101839052606481018c905260ff8a16608482015260a4810189905260c4810188905290519192506001600160a01b0384169163d505accf9160e48082019260009290919082900301818387803b158015613cae57600080fd5b505af1158015613cc2573d6000803e3d6000fd5b50505050613cd48e8e8e8e8e8e611073565b909f909e509c50505050505050505050505050565b60008060008342811015613d32576040805162461bcd60e51b81526020600482015260186024820152600080516020615d61833981519152604482015290519081900360640190fd5b613d408c8c8c8c8c8c615841565b90945092506000613d727f00000000000000000000000000000000000000000000000000000000000000008e8e614ae3565b9050613d808d338388614b9e565b613d8c8c338387614b9e565b806001600160a01b0316636a627842886040518263ffffffff1660e01b815260040180826001600160a01b03166001600160a01b03168152602001915050602060405180830381600087803b158015613de457600080fd5b505af1158015613df8573d6000803e3d6000fd5b505050506040513d6020811015613e0e57600080fd5b5051949d939c50939a509198505050505050505050565b6001546001600160a01b03163314613e70576040805162461bcd60e51b81526020600482015260096024820152682737ba1037bbb732b960b91b604482015290519081900360640190fd5b6001600160a01b038116613ebc576040805162461bcd60e51b815260206004820152600e60248201526d2d32b937903732bb9037bbb732b960911b604482015290519081900360640190fd5b6001546040516001600160a01b038084169216907f8be0079c531659141344cd1fd0a4f28419497f9722a3daafe3b4186f6b6457e090600090a3600180546001600160a01b0319166001600160a01b0392909216919091179055565b60008060008342811015613f61576040805162461bcd60e51b81526020600482015260186024820152600080516020615d61833981519152604482015290519081900360640190fd5b613f8f8a7f00000000000000000000000000000000000000000000000000000000000000008b348c8c615841565b90945092506000613fe17f00000000000000000000000000000000000000000000000000000000000000008c7f0000000000000000000000000000000000000000000000000000000000000000614ae3565b9050613fef8b338388614b9e565b7f00000000000000000000000000000000000000000000000000000000000000006001600160a01b031663d0e30db0856040518263ffffffff1660e01b81526004016000604051808303818588803b15801561404a57600080fd5b505af115801561405e573d6000803e3d6000fd5b50505050507f00000000000000000000000000000000000000000000000000000000000000006001600160a01b031663a9059cbb82866040518363ffffffff1660e01b815260040180836001600160a01b03166001600160a01b0316815260200182815260200192505050602060405180830381600087803b1580156140e357600080fd5b505af11580156140f7573d6000803e3d6000fd5b505050506040513d602081101561410d57600080fd5b505161411557fe5b806001600160a01b0316636a627842886040518263ffffffff1660e01b815260040180826001600160a01b03166001600160a01b03168152602001915050602060405180830381600087803b15801561416d57600080fd5b505af1158015614181573d6000803e3d6000fd5b505050506040513d602081101561419757600080fd5b50519250348410156141af576141af33853403614778565b505096509650969350505050565b60608142811015614203576040805162461bcd60e51b81526020600482015260186024820152600080516020615d61833981519152604482015290519081900360640190fd5b60085460ff161561427257600060025460075442038161421f57fe5b049050801561427057600680548281019182905560025460078054918502909101905560408051828152602081019390935280519192600080516020615c12833981519152929081900390910190a1505b505b7f00000000000000000000000000000000000000000000000000000000000000006001600160a01b0316868660008181106142a957fe5b905060200201356001600160a01b03166001600160a01b031614614302576040805162461bcd60e51b815260206004820152601d6024820152600080516020615c7e833981519152604482015290519081900360640190fd5b6143607f000000000000000000000000000000000000000000000000000000000000000088888880806020026020016040519081016040528093929190818152602001838360200280828437600092019190915250614f4192505050565b9150348260008151811061437057fe5b602002602001015111156143b55760405162461bcd60e51b8152600401808060200182810382526027815260200180615c576027913960400191505060405180910390fd5b7f00000000000000000000000000000000000000000000000000000000000000006001600160a01b031663d0e30db0836000815181106143f157fe5b60200260200101516040518263ffffffff1660e01b81526004016000604051808303818588803b15801561442457600080fd5b505af1158015614438573d6000803e3d6000fd5b50505050507f00000000000000000000000000000000000000000000000000000000000000006001600160a01b031663a9059cbb61449d7f00000000000000000000000000000000000000000000000000000000000000008989600081811061213257fe5b846000815181106144aa57fe5b60200260200101516040518363ffffffff1660e01b815260040180836001600160a01b03166001600160a01b0316815260200182815260200192505050602060405180830381600087803b15801561450157600080fd5b505af1158015614515573d6000803e3d6000fd5b505050506040513d602081101561452b57600080fd5b505161453357fe5b61457282878780806020026020016040519081016040528093929190818152602001838360200280828437600092019190915250899250614cfb915050565b8160008151811061457f57fe5b602002602001015134111561459f5761459f3383600081518110612c9857fe5b6001600160a01b037f000000000000000000000000000000000000000000000000000000000000000016868660001981018181106145d957fe5b905060200201356001600160a01b03166001600160a01b03161415612ca757866146033382615066565b505095945050505050565b604080516001600160a01b038481166024830152604480830185905283518084039091018152606490920183526020820180516001600160e01b031663a9059cbb60e01b178152925182516000946060949389169392918291908083835b6020831061468b5780518252601f19909201916020918201910161466c565b6001836020036101000a0380198251168184511680821785525050505050509050019150506000604051808303816000865af19150503d80600081146146ed576040519150601f19603f3d011682016040523d82523d6000602084013e6146f2565b606091505b5091509150818015614720575080511580614720575080806020019051602081101561471d57600080fd5b50515b614771576040805162461bcd60e51b815260206004820152601f60248201527f5472616e7366657248656c7065723a205452414e534645525f4641494c454400604482015290519081900360640190fd5b5050505050565b604080516000808252602082019092526001600160a01b0384169083906040518082805190602001908083835b602083106147c45780518252601f1990920191602091820191016147a5565b6001836020036101000a03801982511681845116808217855250505050505090500191505060006040518083038185875af1925050503d8060008114614826576040519150601f19603f3d011682016040523d82523d6000602084013e61482b565b606091505b5050905080613bd05760405162461bcd60e51b8152600401808060200182810382526023815260200180615cc46023913960400191505060405180910390fd5b60008084116148ab5760405162461bcd60e51b815260040180806020018281038252602b815260200180615d36602b913960400191505060405180910390fd5b6000831180156148bb5750600082115b6148f65760405162461bcd60e51b8152600401808060200182810382526028815260200180615bea6028913960400191505060405180910390fd5b600061490a856103e563ffffffff61578416565b9050600061491e828563ffffffff61578416565b9050600061494483614938886103e863ffffffff61578416565b9063ffffffff61495b16565b905080828161494f57fe5b04979650505050505050565b808201828110156117c3576040805162461bcd60e51b815260206004820152601460248201527364732d6d6174682d6164642d6f766572666c6f7760601b604482015290519081900360640190fd5b60606002825110156149f1576040805162461bcd60e51b815260206004820152601e6024820152600080516020615d81833981519152604482015290519081900360640190fd5b81516001600160401b0381118015614a0857600080fd5b50604051908082528060200260200182016040528015614a32578160200160208202803683370190505b5090508281600081518110614a4357fe5b60200260200101818152505060005b6001835103811015614adb57600080614a9587868581518110614a7157fe5b6020026020010151878660010181518110614a8857fe5b6020026020010151615aab565b91509150614ab7848481518110614aa857fe5b6020026020010151838361486b565b848460010181518110614ac657fe5b60209081029190910101525050600101614a52565b509392505050565b6000806000614af285856156a6565b604080516001600160601b0319606094851b811660208084019190915293851b81166034830152825160288184030181526048830184528051908501206001600160f81b031960688401529a90941b9093166069840152607d8301989098527ff150b7afa403a6a4bf951647ed88e8bac6094ab4c30b1ad2acf1a4bdbea4afa1609d808401919091528851808403909101815260bd909201909752805196019590952095945050505050565b604080516001600160a01b0385811660248301528481166044830152606480830185905283518084039091018152608490920183526020820180516001600160e01b03166323b872dd60e01b17815292518251600094606094938a169392918291908083835b60208310614c235780518252601f199092019160209182019101614c04565b6001836020036101000a0380198251168184511680821785525050505050509050019150506000604051808303816000865af19150503d8060008114614c85576040519150601f19603f3d011682016040523d82523d6000602084013e614c8a565b606091505b5091509150818015614cb8575080511580614cb85750808060200190516020811015614cb557600080fd5b50515b614cf35760405162461bcd60e51b8152600401808060200182810382526024815260200180615d126024913960400191505060405180910390fd5b505050505050565b60005b6001835103811015614f3b57600080848381518110614d1957fe5b6020026020010151858460010181518110614d3057fe5b6020026020010151915091506000614d4883836156a6565b5090506000878560010181518110614d5c57fe5b60200260200101519050600080836001600160a01b0316866001600160a01b031614614d8a57826000614d8e565b6000835b91509150600060028a51038810614da55788614de6565b614de67f0000000000000000000000000000000000000000000000000000000000000000878c8b60020181518110614dd957fe5b6020026020010151614ae3565b9050614e137f00000000000000000000000000000000000000000000000000000000000000008888614ae3565b6001600160a01b031663022c0d9f84848460006040519080825280601f01601f191660200182016040528015614e50576020820181803683370190505b506040518563ffffffff1660e01b815260040180858152602001848152602001836001600160a01b03166001600160a01b0316815260200180602001828103825283818151815260200191508051906020019080838360005b83811015614ec1578181015183820152602001614ea9565b50505050905090810190601f168015614eee5780820380516001836020036101000a031916815260200191505b5095505050505050600060405180830381600087803b158015614f1057600080fd5b505af1158015614f24573d6000803e3d6000fd5b505060019099019850614cfe975050505050505050565b50505050565b6060600282511015614f88576040805162461bcd60e51b815260206004820152601e6024820152600080516020615d81833981519152604482015290519081900360640190fd5b81516001600160401b0381118015614f9f57600080fd5b50604051908082528060200260200182016040528015614fc9578160200160208202803683370190505b5090508281600183510381518110614fdd57fe5b60209081029190910101528151600019015b8015614adb5760008061501f8786600186038151811061500b57fe5b6020026020010151878681518110614a8857fe5b9150915061504184848151811061503257fe5b6020026020010151838361550a565b84600185038151811061505057fe5b6020908102919091010152505060001901614fef565b806150705761516e565b60065460009081526004602090815260408083206001600160a01b038616845291829052909120546150cd57600281018054600181018255600091825260209091200180546001600160a01b0319166001600160a01b0385161790555b6001600160a01b0383166000908152602082905260409020546150f6908363ffffffff61495b16565b6001600160a01b0384166000908152602083905260409020556001810154615124908363ffffffff61495b16565b60018201556006546040805184815290516001600160a01b03861692917f402e81f1a5617874e92a995b6fb3cf30d66ea9dfc2950cff4477be9ff412662f919081900360200190a3505b5050565b60005b6001835103811015613bd05760008084838151811061519057fe5b60200260200101518584600101815181106151a757fe5b60200260200101519150915060006151bf83836156a6565b50905060006151ef7f00000000000000000000000000000000000000000000000000000000000000008585614ae3565b9050600080600080846001600160a01b0316630902f1ac6040518163ffffffff1660e01b815260040160606040518083038186803b15801561523057600080fd5b505afa158015615244573d6000803e3d6000fd5b505050506040513d606081101561525a57600080fd5b5080516020909101516001600160701b0391821693501690506000806001600160a01b038a811690891614615290578284615293565b83835b9150915060008a6001600160a01b03166370a08231896040518263ffffffff1660e01b815260040180826001600160a01b03166001600160a01b0316815260200191505060206040518083038186803b1580156152ef57600080fd5b505afa158015615303573d6000803e3d6000fd5b505050506040513d602081101561531957600080fd5b5051905061532d818463ffffffff6154ba16565b965061533a87848461486b565b95505050505050600080856001600160a01b0316886001600160a01b03161461536557826000615369565b6000835b91509150600060028c51038a10615380578a6153b4565b6153b47f0000000000000000000000000000000000000000000000000000000000000000898e8d60020181518110614dd957fe5b604080516000808252602082019283905263022c0d9f60e01b835260248201878152604483018790526001600160a01b038086166064850152608060848501908152845160a48601819052969750908c169563022c0d9f958a958a958a9591949193919260c486019290918190849084905b8381101561543e578181015183820152602001615426565b50505050905090810190601f16801561546b5780820380516001836020036101000a031916815260200191505b5095505050505050600060405180830381600087803b15801561548d57600080fd5b505af11580156154a1573d6000803e3d6000fd5b50506001909b019a506151759950505050505050505050565b808203828111156117c3576040805162461bcd60e51b815260206004820152601560248201527464732d6d6174682d7375622d756e646572666c6f7760581b604482015290519081900360640190fd5b600080841161554a5760405162461bcd60e51b815260040180806020018281038252602c815260200180615b73602c913960400191505060405180910390fd5b60008311801561555a5750600082115b6155955760405162461bcd60e51b8152600401808060200182810382526028815260200180615bea6028913960400191505060405180910390fd5b60006155b96103e86155ad868863ffffffff61578416565b9063ffffffff61578416565b905060006155d36103e56155ad868963ffffffff6154ba16565b90506155f060018284816155e357fe5b049063ffffffff61495b16565b9695505050505050565b600080841161563a5760405162461bcd60e51b8152600401808060200182810382526025815260200180615c326025913960400191505060405180910390fd5b60008311801561564a5750600082115b6156855760405162461bcd60e51b8152600401808060200182810382526028815260200180615bea6028913960400191505060405180910390fd5b82615696858463ffffffff61578416565b8161569d57fe5b04949350505050565b600080826001600160a01b0316846001600160a01b031614156156fa5760405162461bcd60e51b8152600401808060200182810382526025815260200180615b9f6025913960400191505060405180910390fd5b826001600160a01b0316846001600160a01b03161061571a57828461571d565b83835b90925090506001600160a01b03821661577d576040805162461bcd60e51b815260206004820152601e60248201527f556e697377617056324c6962726172793a205a45524f5f414444524553530000604482015290519081900360640190fd5b9250929050565b600081158061579f5750508082028282828161579c57fe5b04145b6117c3576040805162461bcd60e51b815260206004820152601460248201527364732d6d6174682d6d756c2d6f766572666c6f7760601b604482015290519081900360640190fd5b6000808211615830576040805162461bcd60e51b815260206004820152601060248201526f64732d6d6174682d6469762d7a65726f60801b604482015290519081900360640190fd5b81838161583957fe5b049392505050565b6040805163e6a4390560e01b81526001600160a01b03888116600483015287811660248301529151600092839283927f00000000000000000000000000000000000000000000000000000000000000009092169163e6a4390591604480820192602092909190829003018186803b1580156158bb57600080fd5b505afa1580156158cf573d6000803e3d6000fd5b505050506040513d60208110156158e557600080fd5b50516001600160a01b0316141561599857604080516364e329cb60e11b81526001600160a01b038a81166004830152898116602483015291517f00000000000000000000000000000000000000000000000000000000000000009092169163c9c65396916044808201926020929091908290030181600087803b15801561596b57600080fd5b505af115801561597f573d6000803e3d6000fd5b505050506040513d602081101561599557600080fd5b50505b6000806159c67f00000000000000000000000000000000000000000000000000000000000000008b8b615aab565b915091508160001480156159d8575080155b156159e857879350869250615a9e565b60006159f58984846155fa565b9050878111615a485785811015615a3d5760405162461bcd60e51b8152600401808060200182810382526026815260200180615bc46026913960400191505060405180910390fd5b889450925082615a9c565b6000615a558984866155fa565b905087811015615a965760405162461bcd60e51b8152600401808060200182810382526026815260200180615c9e6026913960400191505060405180910390fd5b94508793505b505b5050965096945050505050565b6000806000615aba85856156a6565b509050600080615acb888888614ae3565b6001600160a01b0316630902f1ac6040518163ffffffff1660e01b815260040160606040518083038186803b158015615b0357600080fd5b505afa158015615b17573d6000803e3d6000fd5b505050506040513d6060811015615b2d57600080fd5b5080516020909101516001600160701b0391821693501690506001600160a01b0387811690841614615b60578082615b63565b81815b9099909850965050505050505056fe556e697377617056324c6962726172793a20494e53554646494349454e545f4f55545055545f414d4f554e54556e697377617056324c6962726172793a204944454e544943414c5f414444524553534553556e69737761705632526f757465723a20494e53554646494349454e545f425f414d4f554e54556e697377617056324c6962726172793a20494e53554646494349454e545f4c4951554944495459bf754b73de3f0a563539e4273e8d661241bf5cbcd377b07146d52c09b4bffd94556e697377617056324c6962726172793a20494e53554646494349454e545f414d4f554e54556e69737761705632526f757465723a204558434553534956455f494e5055545f414d4f554e54556e69737761705632526f757465723a20494e56414c49445f50415448000000556e69737761705632526f757465723a20494e53554646494349454e545f415f414d4f554e545472616e7366657248656c7065723a204554485f5452414e534645525f4641494c4544556e69737761705632526f757465723a20494e53554646494349454e545f4f55545055545f414d4f554e545472616e7366657248656c7065723a205452414e534645525f46524f4d5f4641494c4544556e697377617056324c6962726172793a20494e53554646494349454e545f494e5055545f414d4f554e54556e69737761705632526f757465723a20455850495245440000000000000000556e697377617056324c6962726172793a20494e56414c49445f504154480000a264697066735822122092c565db478c692498034b6b45cc7a7411ba1adcf6ef0e9a91b7964bfad7bc7264736f6c63430006060033",
  "linkReferences": {},
  "deployedLinkReferences": {}
}